{
  "contractName": "Campaign",
  "abi": [
    {
      "constant": true,
      "inputs": [
        {
          "name": "",
          "type": "uint256"
        }
      ],
      "name": "requests",
      "outputs": [
        {
          "name": "description",
          "type": "string"
        },
        {
          "name": "amount",
          "type": "uint256"
        },
        {
          "name": "recipient",
          "type": "address"
        },
        {
          "name": "complete",
          "type": "bool"
        },
        {
          "name": "approvalsCount",
          "type": "uint256"
        }
      ],
      "payable": false,
      "stateMutability": "view",
      "type": "function"
    },
    {
      "inputs": [
        {
          "name": "minimum",
          "type": "uint256"
        },
        {
          "name": "creator",
          "type": "address"
        }
      ],
      "payable": false,
      "stateMutability": "nonpayable",
      "type": "constructor"
    },
    {
      "constant": false,
      "inputs": [],
      "name": "contribute",
      "outputs": [],
      "payable": true,
      "stateMutability": "payable",
      "type": "function"
    },
    {
      "constant": false,
      "inputs": [
        {
          "name": "_description",
          "type": "string"
        },
        {
          "name": "_amount",
          "type": "uint256"
        },
        {
          "name": "_recipient",
          "type": "address"
        }
      ],
      "name": "createRequest",
      "outputs": [],
      "payable": false,
      "stateMutability": "nonpayable",
      "type": "function"
    },
    {
      "constant": true,
      "inputs": [
        {
          "name": "_description",
          "type": "string"
        }
      ],
      "name": "getRequestDetails",
      "outputs": [
        {
          "name": "",
          "type": "string"
        },
        {
          "name": "",
          "type": "uint256"
        },
        {
          "name": "",
          "type": "address"
        },
        {
          "name": "",
          "type": "bool"
        }
      ],
      "payable": false,
      "stateMutability": "view",
      "type": "function"
    },
    {
      "constant": false,
      "inputs": [
        {
          "name": "_index",
          "type": "uint256"
        }
      ],
      "name": "approveRequest",
      "outputs": [],
      "payable": false,
      "stateMutability": "nonpayable",
      "type": "function"
    },
    {
      "constant": false,
      "inputs": [
        {
          "name": "_index",
          "type": "uint256"
        }
      ],
      "name": "finalizeRequest",
      "outputs": [],
      "payable": false,
      "stateMutability": "nonpayable",
      "type": "function"
    },
    {
      "constant": true,
      "inputs": [],
      "name": "getSummary",
      "outputs": [
        {
          "name": "_contractBalance",
          "type": "uint256"
        },
        {
          "name": "_minimumContribution",
          "type": "uint256"
        },
        {
          "name": "_approversCount",
          "type": "uint256"
        },
        {
          "name": "_requests",
          "type": "uint256"
        },
        {
          "name": "_owner",
          "type": "address"
        }
      ],
      "payable": false,
      "stateMutability": "view",
      "type": "function"
    },
    {
      "constant": true,
      "inputs": [],
      "name": "getRequestCount",
      "outputs": [
        {
          "name": "",
          "type": "uint256"
        }
      ],
      "payable": false,
      "stateMutability": "view",
      "type": "function"
    }
  ],
  "bytecode": "0x608060405234801561001057600080fd5b50604051604080610fa28339810180604052604081101561003057600080fd5b81019080805190602001909291908051906020019092919050505080600260006101000a81548173ffffffffffffffffffffffffffffffffffffffff021916908373ffffffffffffffffffffffffffffffffffffffff160217905550816003819055505050610efe806100a46000396000f3fe608060405260043610610098576000357c01000000000000000000000000000000000000000000000000000000009004806381d12c581161006b57806381d12c58146102fc5780638a9cfd55146103fc578063d7bb99ba146104ee578063d7d1bbdb146104f857610098565b8063034410061461009d5780632bf4b910146100d85780633fad18341461025e5780634051ddac14610289575b600080fd5b3480156100a957600080fd5b506100d6600480360360208110156100c057600080fd5b8101908080359060200190929190505050610533565b005b3480156100e457600080fd5b5061019e600480360360208110156100fb57600080fd5b810190808035906020019064010000000081111561011857600080fd5b82018360208201111561012a57600080fd5b8035906020019184600183028401116401000000008311171561014c57600080fd5b91908080601f016020809104026020016040519081016040528093929190818152602001838380828437600081840152601f19601f82011690508083019250505050505050919291929050505061067d565b60405180806020018581526020018473ffffffffffffffffffffffffffffffffffffffff1673ffffffffffffffffffffffffffffffffffffffff16815260200183151515158152602001828103825286818151815260200191508051906020019080838360005b83811015610220578082015181840152602081019050610205565b50505050905090810190601f16801561024d5780820380516001836020036101000a031916815260200191505b509550505050505060405180910390f35b34801561026a57600080fd5b506102736108bc565b6040518082815260200191505060405180910390f35b34801561029557600080fd5b5061029e6108c8565b604051808681526020018581526020018481526020018381526020018273ffffffffffffffffffffffffffffffffffffffff1673ffffffffffffffffffffffffffffffffffffffff1681526020019550505050505060405180910390f35b34801561030857600080fd5b506103356004803603602081101561031f57600080fd5b8101908080359060200190929190505050610928565b60405180806020018681526020018573ffffffffffffffffffffffffffffffffffffffff1673ffffffffffffffffffffffffffffffffffffffff16815260200184151515158152602001838152602001828103825287818151815260200191508051906020019080838360005b838110156103bd5780820151818401526020810190506103a2565b50505050905090810190601f1680156103ea5780820380516001836020036101000a031916815260200191505b50965050505050505060405180910390f35b34801561040857600080fd5b506104ec6004803603606081101561041f57600080fd5b810190808035906020019064010000000081111561043c57600080fd5b82018360208201111561044e57600080fd5b8035906020019184600183028401116401000000008311171561047057600080fd5b91908080601f016020809104026020016040519081016040528093929190818152602001838380828437600081840152601f19601f82011690508083019250505050505050919291929080359060200190929190803573ffffffffffffffffffffffffffffffffffffffff169060200190929190505050610a32565b005b6104f6610ba8565b005b34801561050457600080fd5b506105316004803603602081101561051b57600080fd5b8101908080359060200190929190505050610c70565b005b600260009054906101000a900473ffffffffffffffffffffffffffffffffffffffff1673ffffffffffffffffffffffffffffffffffffffff163373ffffffffffffffffffffffffffffffffffffffff1614151561058f57600080fd5b6000808281548110151561059f57fe5b9060005260206000209060050201905060026005548115156105bd57fe5b0481600401541115156105cf57600080fd5b8060020160149054906101000a900460ff161515156105ed57600080fd5b8060020160009054906101000a900473ffffffffffffffffffffffffffffffffffffffff1673ffffffffffffffffffffffffffffffffffffffff166108fc82600101549081150290604051600060405180830381858888f1935050505015801561065b573d6000803e3d6000fd5b5060018160020160146101000a81548160ff0219169083151502179055505050565b6060600080600080856040516020018082805190602001908083835b6020831015156106be5780518252602082019150602081019050602083039250610699565b6001836020036101000a0380198251168184511680821785525050505050509050019150506040516020818303038152906040528051906020012090506000600160008381526020019081526020016000205411151561071d57600080fd5b600060018060008481526020019081526020016000205403905061073f610db5565b60008281548110151561074e57fe5b90600052602060002090600502016040518060a0016040529081600082018054600181600116156101000203166002900480601f0160208091040260200160405190810160405280929190818152602001828054600181600116156101000203166002900480156108005780601f106107d557610100808354040283529160200191610800565b820191906000526020600020905b8154815290600101906020018083116107e357829003601f168201915b50505050508152602001600182015481526020016002820160009054906101000a900473ffffffffffffffffffffffffffffffffffffffff1673ffffffffffffffffffffffffffffffffffffffff1673ffffffffffffffffffffffffffffffffffffffff1681526020016002820160149054906101000a900460ff161515151581526020016004820154815250509050806000015181602001518260400151836060015183935081915096509650965096505050509193509193565b60008080549050905090565b60008060008060003073ffffffffffffffffffffffffffffffffffffffff1631600354600554600080549050600260009054906101000a900473ffffffffffffffffffffffffffffffffffffffff16945094509450945094509091929394565b60008181548110151561093757fe5b9060005260206000209060050201600091509050806000018054600181600116156101000203166002900480601f0160208091040260200160405190810160405280929190818152602001828054600181600116156101000203166002900480156109e35780601f106109b8576101008083540402835291602001916109e3565b820191906000526020600020905b8154815290600101906020018083116109c657829003601f168201915b5050505050908060010154908060020160009054906101000a900473ffffffffffffffffffffffffffffffffffffffff16908060020160149054906101000a900460ff16908060040154905085565b600260009054906101000a900473ffffffffffffffffffffffffffffffffffffffff1673ffffffffffffffffffffffffffffffffffffffff163373ffffffffffffffffffffffffffffffffffffffff16141515610a8e57600080fd5b610a96610db5565b6040518060a001604052808581526020018481526020018373ffffffffffffffffffffffffffffffffffffffff16815260200160001515815260200160008152509050600081908060018154018082558091505090600182039060005260206000209060050201600090919290919091506000820151816000019080519060200190610b23929190610dfc565b506020820151816001015560408201518160020160006101000a81548173ffffffffffffffffffffffffffffffffffffffff021916908373ffffffffffffffffffffffffffffffffffffffff16021790555060608201518160020160146101000a81548160ff0219169083151502179055506080820151816004015550505050505050565b60035434111515610c04576040517f08c379a0000000000000000000000000000000000000000000000000000000008152600401808060200182810382526031815260200180610ea26031913960400191505060405180910390fd5b6001600460003373ffffffffffffffffffffffffffffffffffffffff1673ffffffffffffffffffffffffffffffffffffffff16815260200190815260200160002060006101000a81548160ff021916908315150217905550600560008154809291906001019190505550565b60008082815481101515610c8057fe5b90600052602060002090600502019050600460003373ffffffffffffffffffffffffffffffffffffffff1673ffffffffffffffffffffffffffffffffffffffff16815260200190815260200160002060009054906101000a900460ff161515610ce857600080fd5b8060030160003373ffffffffffffffffffffffffffffffffffffffff1673ffffffffffffffffffffffffffffffffffffffff16815260200190815260200160002060009054906101000a900460ff16151515610d4357600080fd5b60018160030160003373ffffffffffffffffffffffffffffffffffffffff1673ffffffffffffffffffffffffffffffffffffffff16815260200190815260200160002060006101000a81548160ff02191690831515021790555080600401600081548092919060010191905055505050565b6040518060a001604052806060815260200160008152602001600073ffffffffffffffffffffffffffffffffffffffff168152602001600015158152602001600081525090565b828054600181600116156101000203166002900490600052602060002090601f016020900481019282601f10610e3d57805160ff1916838001178555610e6b565b82800160010185558215610e6b579182015b82811115610e6a578251825591602001919060010190610e4f565b5b509050610e789190610e7c565b5090565b610e9e91905b80821115610e9a576000816000905550600101610e82565b5090565b9056fe696e73756666696369656e7420616d6f756e742070726f766964656420666f722074686973207472616e73616374696f6ea165627a7a72305820b2186eae2425d299102e66ca408659cc3aefd1157ed9c5b4303ffc98f03eff220029",
  "source": "pragma solidity ^0.5.5;\r\n\r\ncontract Campaign {\r\n    \r\n    struct Request {\r\n        string description; // why the request is being created\r\n        uint amount; // amount of money that the owner wants to send to the third party\r\n        address payable recipient; // address who is going to receive some amount of money\r\n        bool complete; // true if the request has already been completed\r\n        mapping (address => bool) approvals; // track who has voted\r\n        uint approvalsCount; // track number of approvals\r\n    }\r\n    \r\n    Request[] public requests;\r\n    mapping (bytes32 => uint) requestsIndex;\r\n    address owner;\r\n    uint minimumContribution;\r\n    mapping(address => bool) approvers;\r\n    uint approversCount;\r\n    \r\n    modifier onlyOwner () {\r\n        require (msg.sender == owner);\r\n        _;\r\n    }\r\n    \r\n    constructor (uint minimum, address creator) public {\r\n        owner = creator;\r\n        minimumContribution = minimum;\r\n    }\r\n    \r\n    function contribute () public payable {\r\n        require (msg.value > minimumContribution, \"insufficient amount provided for this transaction\");\r\n        \r\n        approvers[msg.sender] = true;\r\n        approversCount++;\r\n    }\r\n    \r\n    function createRequest(string memory _description, uint _amount, address payable _recipient) public onlyOwner {\r\n        //Request  newRequest = Request(_descriptionm, _value, _address< false); // it could be done like this as well  \r\n        \r\n        Request memory newRequest = Request({\r\n            description: _description,\r\n            amount: _amount,\r\n            recipient: _recipient,\r\n            complete: false,\r\n            approvalsCount: 0\r\n        });\r\n        requests.push(newRequest);\r\n    }\r\n    \r\n   function getRequestDetails (string memory _description) public view returns (string memory, uint, address, bool) {\r\n       bytes32 descrHash = keccak256(abi.encodePacked(_description));\r\n       require (requestsIndex[descrHash] > 0);\r\n       \r\n       uint index = requestsIndex[descrHash] - 1;\r\n       Request memory test = requests[index];\r\n       \r\n       return (test.description, test.amount, test.recipient, test.complete);\r\n   }\r\n   \r\n   function approveRequest(uint _index) public {\r\n       Request storage request = requests[_index]; //mark this thing as a storage variable.\r\n        //Very important because we want to manipulate the copy of the struct that exists inside of storage.\r\n        //We don't want to make a copy of it over to memory and we'll call it request and that's going to be coming\r\n        //from requests.\r\n    \r\n       require(approvers[msg.sender]);\r\n       require(!request.approvals[msg.sender]);\r\n       \r\n       \r\n       request.approvals[msg.sender] = true;\r\n       request.approvalsCount++;\r\n   }\r\n   \r\n   function finalizeRequest(uint _index) public onlyOwner {\r\n       Request storage request = requests[_index]; //Don't forget to also add in the storage keyword right here because we want to specifically say that\r\n        //this is a variable that should be looking at the same copy of the request that already exists inside\r\n        //of storage.\r\n        \r\n        require(request.approvalsCount > (approversCount / 2));\r\n        require(!request.complete);\r\n        \r\n        request.recipient.transfer(request.amount);\r\n        \r\n        request.complete = true;\r\n   }\r\n\r\n   function getSummary() public view returns (uint _contractBalance, uint _minimumContribution, uint _approversCount, uint _requests, address _owner) {\r\n       return (\r\n           address(this).balance,\r\n           minimumContribution,\r\n           approversCount,\r\n           requests.length,\r\n           owner\r\n       );\r\n   }\r\n    \r\n    function getRequestCount() public view returns (uint) {\r\n        return requests.length;\r\n    }\r\n\r\n}",
  "sourcePath": "C:\\Users\\Hristian.Georgiev\\Desktop\\Materials\\Brackets\\Udemy Kickstart\\Kickstart\\ethereum\\contracts\\Campaign.sol",
  "compiler": {
    "name": "solc",
    "version": "0.5.5+commit.47a71e8f.Emscripten.clang"
  },
  "schemaVersion": "0.9.17",
  "updatedAt": "2019-03-22T12:59:56.338Z"
}