{
  "contractName": "LimeFactory",
  "abi": [
    {
      "constant": true,
      "inputs": [
        {
          "name": "",
          "type": "uint256"
        }
      ],
      "name": "limes",
      "outputs": [
        {
          "name": "name",
          "type": "string"
        },
        {
          "name": "carbohydrates",
          "type": "uint8"
        },
        {
          "name": "fat",
          "type": "uint8"
        },
        {
          "name": "protein",
          "type": "uint8"
        }
      ],
      "payable": false,
      "stateMutability": "view",
      "type": "function"
    },
    {
      "anonymous": false,
      "inputs": [
        {
          "indexed": false,
          "name": "name",
          "type": "string"
        }
      ],
      "name": "FreshLime",
      "type": "event"
    }
  ],
  "bytecode": "0x608060405234801561001057600080fd5b50610245806100206000396000f3fe608060405234801561001057600080fd5b5060043610610048576000357c01000000000000000000000000000000000000000000000000000000009004806321310ecd1461004d575b600080fd5b6100796004803603602081101561006357600080fd5b810190808035906020019092919050505061011b565b60405180806020018560ff1660ff1681526020018460ff1660ff1681526020018360ff1660ff168152602001828103825286818151815260200191508051906020019080838360005b838110156100dd5780820151818401526020810190506100c2565b50505050905090810190601f16801561010a5780820380516001836020036101000a031916815260200191505b509550505050505060405180910390f35b60008181548110151561012a57fe5b9060005260206000209060020201600091509050806000018054600181600116156101000203166002900480601f0160208091040260200160405190810160405280929190818152602001828054600181600116156101000203166002900480156101d65780601f106101ab576101008083540402835291602001916101d6565b820191906000526020600020905b8154815290600101906020018083116101b957829003601f168201915b5050505050908060010160009054906101000a900460ff16908060010160019054906101000a900460ff16908060010160029054906101000a900460ff1690508456fea165627a7a72305820903ed18e00c2345df4d4af1abc4b31e6de99d9d6cc611ecd11221b7af98e8c290029",
  "source": "pragma solidity ^0.5.0;\n\ncontract LimeFactory {\n\n    event FreshLime(string name);\n\n    struct Lime {\n        string name;\n        uint8 carbohydrates;\n        uint8 fat;\n        uint8 protein;\n    }\n\n    Lime[] public limes;\n\n    function createLime(string memory _name, uint8 _carbohydrates, uint8 _fat, uint8 _protein) internal {\n        limes.push(Lime(_name, _carbohydrates, _fat, _protein));\n        emit FreshLime(_name);\n    }\n}",
  "sourcePath": "C:\\Users\\Hristian.Georgiev\\Desktop\\Materials\\Brackets\\Udemy Kickstart\\Kickstart\\ethereum\\contracts\\LimeFactory.sol",
  "compiler": {
    "name": "solc",
    "version": "0.5.5+commit.47a71e8f.Emscripten.clang"
  },
  "schemaVersion": "0.9.17",
  "updatedAt": "2019-03-22T12:59:56.311Z"
}